:100000000C9446000C9465000C9465000C946500FB
:100010000C9465000C9465000C9465000C946500CC
:100020000C9465000C9465000C9465000C946500BC
:100030000C9465000C9465000C9465000C946500AC
:100040000C9467000C9465000C9465000C9465009A
:100050000C9465000C9465000C9465000C9465008C
:100060000C9465000C9465000C9465000C9465007C
:100070000C9465000C9465000C943A020C94650095
:100080000C9465000C9465000C94650011241FBE4F
:10009000CFEFD0E1DEBFCDBF11E0A0E0B1E0E8E7F7
:1000A000F5E000E00BBF02C007900D92A231B1074E
:1000B000D9F712E0A2E1B1E001C01D92AD31B10764
:1000C000E1F70E944D010C94BA020C9400001F92BB
:1000D0000F920FB60F920BB60F9211242F933F93EE
:1000E0004F935F936F937F938F939F93AF93EF9310
:1000F000FF938DEC82BF80915301882309F052C099
:1001000050911201652F70E020E030E0660F771FFC
:10011000660F771FAFEF213049F0213028F02230F1
:1001200039F0233041F406C0949805C0959803C077
:10013000969801C09798000000000000000099B355
:10014000909543B3409582B3806F82BB80911C022F
:10015000882349F4992311F0A0931C02442361F0F1
:10016000A0931C0209C0FB01E20FF31FEE0FFF1F5B
:10017000EC5AFE4F908341832F5F3F4F243031056F
:1001800051F680911C02882369F0852F8F5F809340
:100190001201893139F41092120110921C028FEF72
:1001A00080935301FF91EF91AF919F918F917F9138
:1001B0006F915F914F913F912F910F900BBE0F90D8
:1001C0000FBE0F901F901895FC0190E008C0809121
:1001D0009B0085FFFCCF819180939C009F5F9617C9
:1001E000B0F3089526B7246026BF28EE33E040E040
:1001F00050E00E949B0226E096958795779567953B
:100200002A95D1F72FEF3FEF40E050E0261B370B48
:10021000480B590B3DBD2CBD85E08EBD06B602FED8
:10022000FDCF1EBC089524E531E0C90160E070E017
:1002300048EC50E00E94940210921C02109253016C
:100240001ABA9FEF9BBB14BA95BB17BA18BA89EFBD
:1002500081BB82BB2DEC22B993B910926100109240
:1002600062001092980083E38093990088E980935C
:100270009A0086E080939D0086B7816086BF87B72D
:10028000816087BF22BF84E083BF86B7806486BF5A
:1002900014BC85E085BD789408952F923F924F92CB
:1002A0005F926F927F928F929F92AF92BF92CF9206
:1002B000DF92EF92FF920F931F93DF93CF930F92F2
:1002C000CDB7DEB70E9413015524CC2477246624D1
:1002D00044244A9493E1292E91E0392E06B606FE75
:1002E00026C086B7806486BF81B180958525782237
:1002F0007094672468228721862158268521C82A80
:10030000C2FE0AC080919B0085FFFCCF8EEF8983DF
:1003100080939C00EBEFCE22C3FE09C080919B002E
:1003200085FFFCCF498240929C00F7EFCF2280915D
:100330005301882399F2F10180E411928A95E9F73B
:10034000EE24FF2443C09F5F8C918D2141F0F90181
:10035000E90FF11DED5EFE4F80818F5F8083DD0C24
:10036000973089F74F5F5F4F4230510589F0DD24A8
:10037000D39490E0D801A40FB51FAC5ABE4F95019D
:10038000240F351F83E0220F331F8A95E1F7DCCF5E
:100390006F5F7F4F6430710559F040E050E0840199
:1003A000060F171F000F111F5B01AA0CBB1CDFCF2C
:1003B0000894E11CF11CE9E1EE16F10439F4A0E027
:1003C00090E0FF2480E060E070E02DC060E070E02D
:1003D0004701880C991C880C991CDFCF2A2FA0811B
:1003E0002A1710F0A22F03C09E2DFB2E832F3F5FF4
:1003F0003196383099F74F5F5F4F4230510571F0B9
:10040000B42FFA01E00FF11F23E0EE0FFF1F2A9532
:10041000E1F7ED5EFE4F2A2F30E0E1CF6F5F7F4FB7
:100420006430710539F0E62E40E050E08B01000F9A
:10043000111FE6CFA230D8F0282F2F5F892F90E030
:10044000880F991F8F0D911D33E0880F991F3A95E2
:10045000E1F7280F80919B0085FFFCCF20939C0043
:10046000298368EC70E080E090E00E94F200109236
:10047000530134CF1F920F920FB60F920BB60F920B
:1004800011248F939F93AF93BF93EF93FF93DF93C9
:10049000CF930F92CDB7DEB790919C00992331F4A2
:1004A00080919B0085FFFCCF8FEF12C0892F845075
:1004B000853038F480919B0085FFFCCF10929C0022
:1004C00023C0903141F480919B0085FFFCCF84E0F4
:1004D00080939C0019C09131B9F49983A0E0B1E0F8
:1004E000FD0101900020E9F73197EA1BFB0BEF5F5C
:1004F00090E008C080919B0085FFFCCF8D91809398
:100500009C009F5F9E17B0F30F90CF91DF91FF91FA
:10051000EF91BF91AF919F918F910F900BBE0F9074
:100520000FBE0F901F901895DC0101C06D934150D4
:100530005040E0F70895629FD001739FF001829FC1
:10054000E00DF11D649FE00DF11D929FF00D839F62
:10055000F00D749FF00D659FF00D9927729FB00DFF
:10056000E11DF91F639FB00DE11DF91FBD01CF0112
:0805700011240895F894FFCF57
:1005780050696B61646F5F323031305F30325F31A8
:0205880033003E
:00000001FF
