:100000000C942A000C9445000C9445000C94450077
:100010000C9445000C9445000C9445000C9445004C
:100020000C9445000C94FB000C9445000C94D001FA
:100030000C9445000C9445000C9445000C9445002C
:100040000C9445000C9445000C9445000C9445001C
:100050000C94450011241FBECFE5D4E0DEBFCDBF18
:1000600010E0A0E6B0E0E8E8F6E002C005900D92EE
:10007000A037B107D9F713E0A0E7B0E001C01D92A7
:10008000A43AB107E1F70C9457020C940000809158
:100090004A01992786309105F1F08730910534F4B3
:1000A0008430910549F0059769F0089587309105EE
:1000B000F1F0089729F1089581B38F7081BB82B365
:1000C000806F07C08F9A81B38F7881BB979882B376
:1000D000806782BB089581B3806C81BB81B38F7CC4
:1000E00081BB82B38F7382BB82B38063F2CF81B353
:1000F000806E81BB8C9882B38F7182BB949A089575
:1001000081B3806F81BB82B38F70E3CF84E0809333
:100110004A0148E552E060E070E08BE491E00E9423
:100120001B031092A3031092310184E390E090939B
:1001300033018093320140E84093420190933501AE
:100140008093340130E430934301909337018093DE
:10015000360122E0209344019093390180933801C5
:1001600081E08093450181E390E090933B0180938F
:100170003A014093460190933D0180933C013093B6
:10018000470190933F0180933E0120E22093480174
:10019000909341018093400180E18093490110BC1C
:1001A00083E389B988E98AB986E880BD88B7816028
:1001B00088BF89B7816089BF8DEC82BF83E083BF30
:1001C00088B7832B88BF14BC87E085BD1ABA8FEF30
:1001D0008BBB17BA88BB84B38C7384BB85B38C7319
:1001E00085BB81B3837F81BB82B38C6082BB0E945D
:1001F0004700789408951F920F920FB60F92112422
:100200000F931F932F933F934F935F936F938F930E
:100210009F93AF93BF93EF93FF93CF93DF93CDB7AC
:10022000DEB72397DEBFCDBF8DEC82BF8091310159
:10023000882309F08FC0682F80914A01681708F061
:1002400077C0462F5527DA01A40FB51FAE5CBE4F0D
:100250000D911C9111979A012E5B3E4FF801808100
:10026000F9019081892BF8018083000000000000D3
:10027000000089B38095898386B380958A8380B393
:10028000809582958F708B83ED91FC91D9019C9123
:10029000909580818923808380914A01853019F46B
:1002A0008B8187700DC080914A01863019F48B8153
:1002B000837006C080914A01873021F48B81817060
:1002C0008B8305C080914A01883009F41B8280919C
:1002D000A303882369F42FEFFE01319692E0819108
:1002E000882311F02093A303915097FFF8CF1EC0ED
:1002F00080917000282F3327FA01EE0FFF1FE40FC3
:10030000F51F88E190E0289FA001299F500D389F9C
:10031000500D1124E40FF51FDE011196E55BFE4F31
:1003200092E08D918193915097FFFBCF6F5F84CFC7
:100330008091A303882371F0809170008F5F809378
:100340007000893139F4109270001092A3038FEF7E
:10035000809331012396F894DEBFCDBFDF91CF911A
:10036000FF91EF91BF91AF919F918F916F915F91AD
:100370004F913F912F911F910F910F900FBE0F90B2
:100380001F901895AC0120E0261748F45D9BFECF26
:10039000FA01E20FF11D80818CB92F5FF5CF08952E
:1003A0001F920F920FB60F9211242F933F934F93EA
:1003B0005F936F937F938F939F93AF93BF93EF93CD
:1003C000FF93CF93DF93CDB7DEB72197DEBFCDBFCD
:1003D0009CB199839B3129F4F89413BE0C94000FBF
:1003E00028C0992311F48FEF11C0892F84508530D4
:1003F00048F490934A010E944700198261E0CE01BF
:10040000019615C0903121F480914A018983F6CF7D
:10041000913179F4E0E6F0E0DF010D900020E9F79A
:100420001197AE1BBF0B8A2F8F5F682FCF010E94E1
:10043000C2012196F894DEBFCDBFDF91CF91FF912D
:10044000EF91BF91AF919F918F917F916F915F914C
:100450004F913F912F910F900FBE0F901F901895C5
:100460009B01AC0188B7846088BFCA01B90128EE3E
:1004700033E040E050E00E9425039B01AC0196E090
:1004800056954795379527959A95D1F78FEF9FEF1A
:10049000A0E0B0E0821B930BA40BB50B9DBD8CBDFF
:1004A00085E08EBD08B602FEFDCF1EBC0895CEE5E8
:1004B000D4E0DEBFCDBFBB247B2C9B2C8B2C0E94B9
:1004C000860008B606FE26C088B7806488BF80B361
:1004D000809587259822909489248822992D9821A7
:1004E000892378268721B82AB2FE09C08EEF898336
:1004F00061E0CE0101960E94C2018BEFB822B3FEEB
:1005000009C08FEF898361E0CE0101960E94C2018C
:1005100097EFB92280913101882399F280ECE1E7CD
:10052000F0E011928A95E9F7AA24EE24FF2410E066
:1005300080914A01181778F570E0812F9927AC0156
:10054000440F551F480F591F6701C40ED51E60E0A8
:1005500001E0872F9927D601A80FB91FA55BBE4FD1
:100560009A01280F391FE3E0220F331FEA95E1F7C4
:100570006F5F8C91802341F0F901E60FF11DEF5878
:10058000FF4F80818F5F8083000F91F77F5F733013
:10059000F0F21F5FCDCFA39488E190E0E80EF91E42
:1005A00098E19A1520F650E0B52F452FA52F152F6D
:1005B00080914A015817E0F570E0812F99279C013E
:1005C000220F331F280F391F60E0F901E70FF11DDB
:1005D00003E0EE0FFF1F0A95E1F7EF58FF4F8191FF
:1005E000B81720F4B82F512F472FA62F6F5F683010
:1005F000B0F37F5F733040F31F5F80914A0118179B
:10060000D8F2B230A8F0440F440F440F84E1589F51
:10061000C0011124480F4A0F498361E0CE010196C1
:100620000E94C20168EC70E080E090E00E9430021D
:100630001092310146CFDC0140FF03C001C06D9331
:100640006D9342505040D8F70895629FD001739F38
:10065000F001829FE00DF11D649FE00DF11D929F5E
:10066000F00D839FF00D749FF00D659FF00D99279D
:10067000729FB00DE11DF91F639FB00DE11DF91FC1
:08068000BD01CF011124089512
:10068800446172745F323030365F30375F31350025
:00000001FF
